{
  "_format": "hh-sol-artifact-1",
  "contractName": "NbitaiToken",
  "sourceName": "contracts/NbitaiToken.sol",
  "abi": [
    {
      "inputs": [],
      "stateMutability": "nonpayable",
      "type": "constructor"
    },
    {
      "inputs": [
        {
          "internalType": "address",
          "name": "target",
          "type": "address"
        }
      ],
      "name": "AddressEmptyCode",
      "type": "error"
    },
    {
      "inputs": [],
      "name": "ECDSAInvalidSignature",
      "type": "error"
    },
    {
      "inputs": [
        {
          "internalType": "uint256",
          "name": "length",
          "type": "uint256"
        }
      ],
      "name": "ECDSAInvalidSignatureLength",
      "type": "error"
    },
    {
      "inputs": [
        {
          "internalType": "bytes32",
          "name": "s",
          "type": "bytes32"
        }
      ],
      "name": "ECDSAInvalidSignatureS",
      "type": "error"
    },
    {
      "inputs": [
        {
          "internalType": "address",
          "name": "implementation",
          "type": "address"
        }
      ],
      "name": "ERC1967InvalidImplementation",
      "type": "error"
    },
    {
      "inputs": [],
      "name": "ERC1967NonPayable",
      "type": "error"
    },
    {
      "inputs": [
        {
          "internalType": "address",
          "name": "spender",
          "type": "address"
        },
        {
          "internalType": "uint256",
          "name": "allowance",
          "type": "uint256"
        },
        {
          "internalType": "uint256",
          "name": "needed",
          "type": "uint256"
        }
      ],
      "name": "ERC20InsufficientAllowance",
      "type": "error"
    },
    {
      "inputs": [
        {
          "internalType": "address",
          "name": "sender",
          "type": "address"
        },
        {
          "internalType": "uint256",
          "name": "balance",
          "type": "uint256"
        },
        {
          "internalType": "uint256",
          "name": "needed",
          "type": "uint256"
        }
      ],
      "name": "ERC20InsufficientBalance",
      "type": "error"
    },
    {
      "inputs": [
        {
          "internalType": "address",
          "name": "approver",
          "type": "address"
        }
      ],
      "name": "ERC20InvalidApprover",
      "type": "error"
    },
    {
      "inputs": [
        {
          "internalType": "address",
          "name": "receiver",
          "type": "address"
        }
      ],
      "name": "ERC20InvalidReceiver",
      "type": "error"
    },
    {
      "inputs": [
        {
          "internalType": "address",
          "name": "sender",
          "type": "address"
        }
      ],
      "name": "ERC20InvalidSender",
      "type": "error"
    },
    {
      "inputs": [
        {
          "internalType": "address",
          "name": "spender",
          "type": "address"
        }
      ],
      "name": "ERC20InvalidSpender",
      "type": "error"
    },
    {
      "inputs": [
        {
          "internalType": "uint256",
          "name": "deadline",
          "type": "uint256"
        }
      ],
      "name": "ERC2612ExpiredSignature",
      "type": "error"
    },
    {
      "inputs": [
        {
          "internalType": "address",
          "name": "signer",
          "type": "address"
        },
        {
          "internalType": "address",
          "name": "owner",
          "type": "address"
        }
      ],
      "name": "ERC2612InvalidSigner",
      "type": "error"
    },
    {
      "inputs": [],
      "name": "EnforcedPause",
      "type": "error"
    },
    {
      "inputs": [],
      "name": "ExpectedPause",
      "type": "error"
    },
    {
      "inputs": [],
      "name": "FailedCall",
      "type": "error"
    },
    {
      "inputs": [
        {
          "internalType": "address",
          "name": "account",
          "type": "address"
        },
        {
          "internalType": "uint256",
          "name": "currentNonce",
          "type": "uint256"
        }
      ],
      "name": "InvalidAccountNonce",
      "type": "error"
    },
    {
      "inputs": [],
      "name": "InvalidInitialization",
      "type": "error"
    },
    {
      "inputs": [],
      "name": "NotInitializing",
      "type": "error"
    },
    {
      "inputs": [
        {
          "internalType": "address",
          "name": "owner",
          "type": "address"
        }
      ],
      "name": "OwnableInvalidOwner",
      "type": "error"
    },
    {
      "inputs": [
        {
          "internalType": "address",
          "name": "account",
          "type": "address"
        }
      ],
      "name": "OwnableUnauthorizedAccount",
      "type": "error"
    },
    {
      "inputs": [],
      "name": "UUPSUnauthorizedCallContext",
      "type": "error"
    },
    {
      "inputs": [
        {
          "internalType": "bytes32",
          "name": "slot",
          "type": "bytes32"
        }
      ],
      "name": "UUPSUnsupportedProxiableUUID",
      "type": "error"
    },
    {
      "anonymous": false,
      "inputs": [
        {
          "indexed": true,
          "internalType": "address",
          "name": "owner",
          "type": "address"
        },
        {
          "indexed": true,
          "internalType": "address",
          "name": "spender",
          "type": "address"
        },
        {
          "indexed": false,
          "internalType": "uint256",
          "name": "value",
          "type": "uint256"
        }
      ],
      "name": "Approval",
      "type": "event"
    },
    {
      "anonymous": false,
      "inputs": [],
      "name": "EIP712DomainChanged",
      "type": "event"
    },
    {
      "anonymous": false,
      "inputs": [
        {
          "indexed": false,
          "internalType": "uint64",
          "name": "version",
          "type": "uint64"
        }
      ],
      "name": "Initialized",
      "type": "event"
    },
    {
      "anonymous": false,
      "inputs": [
        {
          "indexed": true,
          "internalType": "address",
          "name": "previousOwner",
          "type": "address"
        },
        {
          "indexed": true,
          "internalType": "address",
          "name": "newOwner",
          "type": "address"
        }
      ],
      "name": "OwnershipTransferred",
      "type": "event"
    },
    {
      "anonymous": false,
      "inputs": [
        {
          "indexed": false,
          "internalType": "address",
          "name": "account",
          "type": "address"
        }
      ],
      "name": "Paused",
      "type": "event"
    },
    {
      "anonymous": false,
      "inputs": [
        {
          "indexed": true,
          "internalType": "address",
          "name": "from",
          "type": "address"
        },
        {
          "indexed": true,
          "internalType": "address",
          "name": "to",
          "type": "address"
        },
        {
          "indexed": false,
          "internalType": "uint256",
          "name": "value",
          "type": "uint256"
        }
      ],
      "name": "Transfer",
      "type": "event"
    },
    {
      "anonymous": false,
      "inputs": [
        {
          "indexed": false,
          "internalType": "address",
          "name": "account",
          "type": "address"
        }
      ],
      "name": "Unpaused",
      "type": "event"
    },
    {
      "anonymous": false,
      "inputs": [
        {
          "indexed": true,
          "internalType": "address",
          "name": "implementation",
          "type": "address"
        }
      ],
      "name": "Upgraded",
      "type": "event"
    },
    {
      "inputs": [],
      "name": "DOMAIN_SEPARATOR",
      "outputs": [
        {
          "internalType": "bytes32",
          "name": "",
          "type": "bytes32"
        }
      ],
      "stateMutability": "view",
      "type": "function"
    },
    {
      "inputs": [],
      "name": "UPGRADE_INTERFACE_VERSION",
      "outputs": [
        {
          "internalType": "string",
          "name": "",
          "type": "string"
        }
      ],
      "stateMutability": "view",
      "type": "function"
    },
    {
      "inputs": [
        {
          "internalType": "address",
          "name": "owner",
          "type": "address"
        },
        {
          "internalType": "address",
          "name": "spender",
          "type": "address"
        }
      ],
      "name": "allowance",
      "outputs": [
        {
          "internalType": "uint256",
          "name": "",
          "type": "uint256"
        }
      ],
      "stateMutability": "view",
      "type": "function"
    },
    {
      "inputs": [
        {
          "internalType": "address",
          "name": "spender",
          "type": "address"
        },
        {
          "internalType": "uint256",
          "name": "value",
          "type": "uint256"
        }
      ],
      "name": "approve",
      "outputs": [
        {
          "internalType": "bool",
          "name": "",
          "type": "bool"
        }
      ],
      "stateMutability": "nonpayable",
      "type": "function"
    },
    {
      "inputs": [
        {
          "internalType": "address",
          "name": "account",
          "type": "address"
        }
      ],
      "name": "balanceOf",
      "outputs": [
        {
          "internalType": "uint256",
          "name": "",
          "type": "uint256"
        }
      ],
      "stateMutability": "view",
      "type": "function"
    },
    {
      "inputs": [
        {
          "internalType": "uint256",
          "name": "value",
          "type": "uint256"
        }
      ],
      "name": "burn",
      "outputs": [],
      "stateMutability": "nonpayable",
      "type": "function"
    },
    {
      "inputs": [
        {
          "internalType": "address",
          "name": "account",
          "type": "address"
        },
        {
          "internalType": "uint256",
          "name": "value",
          "type": "uint256"
        }
      ],
      "name": "burnFrom",
      "outputs": [],
      "stateMutability": "nonpayable",
      "type": "function"
    },
    {
      "inputs": [],
      "name": "decimals",
      "outputs": [
        {
          "internalType": "uint8",
          "name": "",
          "type": "uint8"
        }
      ],
      "stateMutability": "view",
      "type": "function"
    },
    {
      "inputs": [],
      "name": "eip712Domain",
      "outputs": [
        {
          "internalType": "bytes1",
          "name": "fields",
          "type": "bytes1"
        },
        {
          "internalType": "string",
          "name": "name",
          "type": "string"
        },
        {
          "internalType": "string",
          "name": "version",
          "type": "string"
        },
        {
          "internalType": "uint256",
          "name": "chainId",
          "type": "uint256"
        },
        {
          "internalType": "address",
          "name": "verifyingContract",
          "type": "address"
        },
        {
          "internalType": "bytes32",
          "name": "salt",
          "type": "bytes32"
        },
        {
          "internalType": "uint256[]",
          "name": "extensions",
          "type": "uint256[]"
        }
      ],
      "stateMutability": "view",
      "type": "function"
    },
    {
      "inputs": [
        {
          "internalType": "address",
          "name": "initialOwner",
          "type": "address"
        }
      ],
      "name": "initialize",
      "outputs": [],
      "stateMutability": "nonpayable",
      "type": "function"
    },
    {
      "inputs": [],
      "name": "name",
      "outputs": [
        {
          "internalType": "string",
          "name": "",
          "type": "string"
        }
      ],
      "stateMutability": "view",
      "type": "function"
    },
    {
      "inputs": [
        {
          "internalType": "address",
          "name": "owner",
          "type": "address"
        }
      ],
      "name": "nonces",
      "outputs": [
        {
          "internalType": "uint256",
          "name": "",
          "type": "uint256"
        }
      ],
      "stateMutability": "view",
      "type": "function"
    },
    {
      "inputs": [],
      "name": "owner",
      "outputs": [
        {
          "internalType": "address",
          "name": "",
          "type": "address"
        }
      ],
      "stateMutability": "view",
      "type": "function"
    },
    {
      "inputs": [],
      "name": "pause",
      "outputs": [],
      "stateMutability": "nonpayable",
      "type": "function"
    },
    {
      "inputs": [],
      "name": "paused",
      "outputs": [
        {
          "internalType": "bool",
          "name": "",
          "type": "bool"
        }
      ],
      "stateMutability": "view",
      "type": "function"
    },
    {
      "inputs": [
        {
          "internalType": "address",
          "name": "owner",
          "type": "address"
        },
        {
          "internalType": "address",
          "name": "spender",
          "type": "address"
        },
        {
          "internalType": "uint256",
          "name": "value",
          "type": "uint256"
        },
        {
          "internalType": "uint256",
          "name": "deadline",
          "type": "uint256"
        },
        {
          "internalType": "uint8",
          "name": "v",
          "type": "uint8"
        },
        {
          "internalType": "bytes32",
          "name": "r",
          "type": "bytes32"
        },
        {
          "internalType": "bytes32",
          "name": "s",
          "type": "bytes32"
        }
      ],
      "name": "permit",
      "outputs": [],
      "stateMutability": "nonpayable",
      "type": "function"
    },
    {
      "inputs": [],
      "name": "proxiableUUID",
      "outputs": [
        {
          "internalType": "bytes32",
          "name": "",
          "type": "bytes32"
        }
      ],
      "stateMutability": "view",
      "type": "function"
    },
    {
      "inputs": [],
      "name": "renounceOwnership",
      "outputs": [],
      "stateMutability": "nonpayable",
      "type": "function"
    },
    {
      "inputs": [],
      "name": "symbol",
      "outputs": [
        {
          "internalType": "string",
          "name": "",
          "type": "string"
        }
      ],
      "stateMutability": "view",
      "type": "function"
    },
    {
      "inputs": [],
      "name": "totalSupply",
      "outputs": [
        {
          "internalType": "uint256",
          "name": "",
          "type": "uint256"
        }
      ],
      "stateMutability": "view",
      "type": "function"
    },
    {
      "inputs": [
        {
          "internalType": "address",
          "name": "to",
          "type": "address"
        },
        {
          "internalType": "uint256",
          "name": "value",
          "type": "uint256"
        }
      ],
      "name": "transfer",
      "outputs": [
        {
          "internalType": "bool",
          "name": "",
          "type": "bool"
        }
      ],
      "stateMutability": "nonpayable",
      "type": "function"
    },
    {
      "inputs": [
        {
          "internalType": "address",
          "name": "from",
          "type": "address"
        },
        {
          "internalType": "address",
          "name": "to",
          "type": "address"
        },
        {
          "internalType": "uint256",
          "name": "value",
          "type": "uint256"
        }
      ],
      "name": "transferFrom",
      "outputs": [
        {
          "internalType": "bool",
          "name": "",
          "type": "bool"
        }
      ],
      "stateMutability": "nonpayable",
      "type": "function"
    },
    {
      "inputs": [
        {
          "internalType": "address",
          "name": "newOwner",
          "type": "address"
        }
      ],
      "name": "transferOwnership",
      "outputs": [],
      "stateMutability": "nonpayable",
      "type": "function"
    },
    {
      "inputs": [],
      "name": "unpause",
      "outputs": [],
      "stateMutability": "nonpayable",
      "type": "function"
    },
    {
      "inputs": [
        {
          "internalType": "address",
          "name": "newImplementation",
          "type": "address"
        },
        {
          "internalType": "bytes",
          "name": "data",
          "type": "bytes"
        }
      ],
      "name": "upgradeToAndCall",
      "outputs": [],
      "stateMutability": "payable",
      "type": "function"
    }
  ],
  "bytecode": "0x60a06040523060805234801561001457600080fd5b5061001d610022565b6100d4565b7ff0c57e16840df040f15088dc2f81fe391c3923bec73e23a9662efc9c229c6a00805468010000000000000000900460ff16156100725760405163f92ee8a960e01b815260040160405180910390fd5b80546001600160401b03908116146100d15780546001600160401b0319166001600160401b0390811782556040519081527fc7f505b2f371ae2175ee4913f4499e1f2633a7b5936321eed1cdaeb6115181d29060200160405180910390a15b50565b608051611fcb6100fd60003960008181610cfb01528181610d240152610e650152611fcb6000f3fe6080604052600436106101665760003560e01c8063715018a6116100d157806395d89b411161008a578063c4d66de811610064578063c4d66de814610438578063d505accf14610458578063dd62ed3e14610478578063f2fde38b1461049857600080fd5b806395d89b41146103d2578063a9059cbb146103e7578063ad3cb1cc1461040757600080fd5b8063715018a6146102f957806379cc67901461030e5780637ecebe001461032e5780638456cb591461034e57806384b0196e146103635780638da5cb5b1461038b57600080fd5b80633f4ba83a116101235780633f4ba83a1461025557806342966c681461026c5780634f1ef2861461028c57806352d1902d1461029f5780635c975abb146102b457806370a08231146102d957600080fd5b806306fdde031461016b578063095ea7b31461019657806318160ddd146101c657806323b872dd14610204578063313ce567146102245780633644e51514610240575b600080fd5b34801561017757600080fd5b506101806104b8565b60405161018d919061196c565b60405180910390f35b3480156101a257600080fd5b506101b66101b136600461199b565b610561565b604051901515815260200161018d565b3480156101d257600080fd5b507f52c63247e1f47db19d5ce0460030c497f067ca4cebf71ba98eeadabe20bace02545b60405190815260200161018d565b34801561021057600080fd5b506101b661021f3660046119c5565b61057b565b34801561023057600080fd5b506040516012815260200161018d565b34801561024c57600080fd5b506101f66105a1565b34801561026157600080fd5b5061026a6105b0565b005b34801561027857600080fd5b5061026a610287366004611a02565b6105c2565b61026a61029a366004611a31565b6105cf565b3480156102ab57600080fd5b506101f66105ee565b3480156102c057600080fd5b50600080516020611f768339815191525460ff166101b6565b3480156102e557600080fd5b506101f66102f4366004611afb565b61060b565b34801561030557600080fd5b5061026a61063e565b34801561031a57600080fd5b5061026a61032936600461199b565b610650565b34801561033a57600080fd5b506101f6610349366004611afb565b610665565b34801561035a57600080fd5b5061026a610670565b34801561036f57600080fd5b50610378610680565b60405161018d9796959493929190611b16565b34801561039757600080fd5b507f9016d09d72d40fdae2fd8ceac6b6234c7706214fd39c1cd1e609a0528c199300546040516001600160a01b03909116815260200161018d565b3480156103de57600080fd5b50610180610731565b3480156103f357600080fd5b506101b661040236600461199b565b610770565b34801561041357600080fd5b50610180604051806040016040528060058152602001640352e302e360dc1b81525081565b34801561044457600080fd5b5061026a610453366004611afb565b61077e565b34801561046457600080fd5b5061026a610473366004611bae565b610940565b34801561048457600080fd5b506101f6610493366004611c21565b610a99565b3480156104a457600080fd5b5061026a6104b3366004611afb565b610ae3565b60606000600080516020611f168339815191525b90508060030180546104dd90611c54565b80601f016020809104026020016040519081016040528092919081815260200182805461050990611c54565b80156105565780601f1061052b57610100808354040283529160200191610556565b820191906000526020600020905b81548152906001019060200180831161053957829003601f168201915b505050505091505090565b60003361056f818585610b1e565b60019150505b92915050565b600033610589858285610b30565b610594858585610b96565b60019150505b9392505050565b60006105ab610bf5565b905090565b6105b8610bff565b6105c0610c5a565b565b6105cc3382610cba565b50565b6105d7610cf0565b6105e082610d95565b6105ea8282610d9d565b5050565b60006105f8610e5a565b50600080516020611f5683398151915290565b600080600080516020611f168339815191525b6001600160a01b0390931660009081526020939093525050604090205490565b610646610bff565b6105c06000610ea3565b61065b823383610b30565b6105ea8282610cba565b600061057582610f14565b610678610bff565b6105c0610f3d565b60006060808280808381600080516020611f3683398151915280549091501580156106ad57506001810154155b6106f65760405162461bcd60e51b81526020600482015260156024820152741152540dcc4c8e88155b9a5b9a5d1a585b1a5e9959605a1b60448201526064015b60405180910390fd5b6106fe610f86565b610706610fc5565b60408051600080825260208201909252600f60f81b9c939b5091995046985030975095509350915050565b7f52c63247e1f47db19d5ce0460030c497f067ca4cebf71ba98eeadabe20bace048054606091600080516020611f16833981519152916104dd90611c54565b60003361056f818585610b96565b7ff0c57e16840df040f15088dc2f81fe391c3923bec73e23a9662efc9c229c6a008054600160401b810460ff16159067ffffffffffffffff166000811580156107c45750825b905060008267ffffffffffffffff1660011480156107e15750303b155b9050811580156107ef575080155b1561080d5760405163f92ee8a960e01b815260040160405180910390fd5b845467ffffffffffffffff19166001178555831561083757845460ff60401b1916600160401b1785555b6108816040518060400160405280600c81526020016b273134ba30b4902a37b5b2b760a11b815250604051806040016040528060048152602001631390925560e21b815250610fdd565b610889610fef565b610891610ff7565b61089a86611007565b6108c76040518060400160405280600c81526020016b273134ba30b4902a37b5b2b760a11b815250611018565b6108cf610fef565b6108f2336108df6012600a611d8b565b6108ed90633b9aca00611d9a565b611043565b831561093857845460ff60401b19168555604051600181527fc7f505b2f371ae2175ee4913f4499e1f2633a7b5936321eed1cdaeb6115181d29060200160405180910390a15b505050505050565b834211156109645760405163313c898160e11b8152600481018590526024016106ed565b60007f6e71edae12b1b97f4d1f60370fef10105fa2faae0126114a169c64845d6126c98888886109d08c6001600160a01b031660009081527f5ab42ced628888259c08ac98db1eb0cf702fc1501344311d8b100cd1bfe4bb006020526040902080546001810190915590565b6040805160208101969096526001600160a01b0394851690860152929091166060840152608083015260a082015260c0810186905260e0016040516020818303038152906040528051906020012090506000610a2b82611079565b90506000610a3b828787876110a6565b9050896001600160a01b0316816001600160a01b031614610a82576040516325c0072360e11b81526001600160a01b0380831660048301528b1660248201526044016106ed565b610a8d8a8a8a610b1e565b50505050505050505050565b6001600160a01b0391821660009081527f52c63247e1f47db19d5ce0460030c497f067ca4cebf71ba98eeadabe20bace016020908152604080832093909416825291909152205490565b610aeb610bff565b6001600160a01b038116610b1557604051631e4fbdf760e01b8152600060048201526024016106ed565b6105cc81610ea3565b610b2b83838360016110d4565b505050565b6000610b3c8484610a99565b90506000198114610b905781811015610b8157604051637dc7a0d960e11b81526001600160a01b038416600482015260248101829052604481018390526064016106ed565b610b90848484840360006110d4565b50505050565b6001600160a01b038316610bc057604051634b637e8f60e11b8152600060048201526024016106ed565b6001600160a01b038216610bea5760405163ec442f0560e01b8152600060048201526024016106ed565b610b2b8383836111bc565b60006105ab6111c7565b33610c317f9016d09d72d40fdae2fd8ceac6b6234c7706214fd39c1cd1e609a0528c199300546001600160a01b031690565b6001600160a01b0316146105c05760405163118cdaa760e01b81523360048201526024016106ed565b610c6261123b565b600080516020611f76833981519152805460ff191681557f5db9ee0a495bf2e6ff9c91a7834c1ba4fdd244a5e8aa4e537bd38aeae4b073aa335b6040516001600160a01b03909116815260200160405180910390a150565b6001600160a01b038216610ce457604051634b637e8f60e11b8152600060048201526024016106ed565b6105ea826000836111bc565b306001600160a01b037f0000000000000000000000000000000000000000000000000000000000000000161480610d7757507f00000000000000000000000000000000000000000000000000000000000000006001600160a01b0316610d6b600080516020611f56833981519152546001600160a01b031690565b6001600160a01b031614155b156105c05760405163703e46dd60e11b815260040160405180910390fd5b6105cc610bff565b816001600160a01b03166352d1902d6040518163ffffffff1660e01b8152600401602060405180830381865afa925050508015610df7575060408051601f3d908101601f19168201909252610df491810190611db1565b60015b610e1f57604051634c9c8ce360e01b81526001600160a01b03831660048201526024016106ed565b600080516020611f568339815191528114610e5057604051632a87526960e21b8152600481018290526024016106ed565b610b2b838361126b565b306001600160a01b037f000000000000000000000000000000000000000000000000000000000000000016146105c05760405163703e46dd60e11b815260040160405180910390fd5b7f9016d09d72d40fdae2fd8ceac6b6234c7706214fd39c1cd1e609a0528c19930080546001600160a01b031981166001600160a01b03848116918217845560405192169182907f8be0079c531659141344cd1fd0a4f28419497f9722a3daafe3b4186f6b6457e090600090a3505050565b6000807f5ab42ced628888259c08ac98db1eb0cf702fc1501344311d8b100cd1bfe4bb0061061e565b610f456112c1565b600080516020611f76833981519152805460ff191660011781557f62e78cea01bee320cd4e420270b5ea74000d11b0c9f74754ebdbfc544b05a25833610c9c565b7fa16a46d94261c7517cc8ff89f61c0ce93598e3c849801011dee649a6a557d1028054606091600080516020611f36833981519152916104dd90611c54565b60606000600080516020611f368339815191526104cc565b610fe56112f2565b6105ea828261133b565b6105c06112f2565b610fff6112f2565b6105c061138c565b61100f6112f2565b6105cc816113ad565b6110206112f2565b6105cc81604051806040016040528060018152602001603160f81b8152506113b5565b6001600160a01b03821661106d5760405163ec442f0560e01b8152600060048201526024016106ed565b6105ea600083836111bc565b6000610575611086610bf5565b8360405161190160f01b8152600281019290925260228201526042902090565b6000806000806110b888888888611416565b9250925092506110c882826114e5565b50909695505050505050565b600080516020611f168339815191526001600160a01b03851661110d5760405163e602df0560e01b8152600060048201526024016106ed565b6001600160a01b03841661113757604051634a1406b160e11b8152600060048201526024016106ed565b6001600160a01b038086166000908152600183016020908152604080832093881683529290522083905581156111b557836001600160a01b0316856001600160a01b03167f8c5be1e5ebec7d5bd14f71427d1e84f3dd0314c0f7b2291e5b200ac8c7c3b925856040516111ac91815260200190565b60405180910390a35b5050505050565b610b2b83838361159e565b60007f8b73c3c69bb8fe3d512ecc4cf759cc79239f7b179b0ffacaa9a75d522b39400f6111f26115b1565b6111fa61161b565b60408051602081019490945283019190915260608201524660808201523060a082015260c00160405160208183030381529060405280519060200120905090565b600080516020611f768339815191525460ff166105c057604051638dfc202b60e01b815260040160405180910390fd5b6112748261165f565b6040516001600160a01b038316907fbc7cd75a20ee27fd9adebab32041f755214dbc6bffa90cc0225b39da2e5c2d3b90600090a28051156112b957610b2b82826116c4565b6105ea61173a565b600080516020611f768339815191525460ff16156105c05760405163d93c066560e01b815260040160405180910390fd5b7ff0c57e16840df040f15088dc2f81fe391c3923bec73e23a9662efc9c229c6a0054600160401b900460ff166105c057604051631afcd79f60e31b815260040160405180910390fd5b6113436112f2565b600080516020611f168339815191527f52c63247e1f47db19d5ce0460030c497f067ca4cebf71ba98eeadabe20bace0361137d8482611e11565b5060048101610b908382611e11565b6113946112f2565b600080516020611f76833981519152805460ff19169055565b610aeb6112f2565b6113bd6112f2565b600080516020611f368339815191527fa16a46d94261c7517cc8ff89f61c0ce93598e3c849801011dee649a6a557d1026113f78482611e11565b50600381016114068382611e11565b5060008082556001909101555050565b600080807f7fffffffffffffffffffffffffffffff5d576e7357a4501ddfe92f46681b20a084111561145157506000915060039050826114db565b604080516000808252602082018084528a905260ff891692820192909252606081018790526080810186905260019060a0016020604051602081039080840390855afa1580156114a5573d6000803e3d6000fd5b5050604051601f1901519150506001600160a01b0381166114d1575060009250600191508290506114db565b9250600091508190505b9450945094915050565b60008260038111156114f9576114f9611ed0565b03611502575050565b600182600381111561151657611516611ed0565b036115345760405163f645eedf60e01b815260040160405180910390fd5b600282600381111561154857611548611ed0565b036115695760405163fce698f760e01b8152600481018290526024016106ed565b600382600381111561157d5761157d611ed0565b036105ea576040516335e2f38360e21b8152600481018290526024016106ed565b6115a66112c1565b610b2b838383611759565b6000600080516020611f36833981519152816115cb610f86565b8051909150156115e357805160209091012092915050565b815480156115f2579392505050565b7fc5d2460186f7233c927e7db2dcc703c0e500b653ca82273b7bfad8045d85a470935050505090565b6000600080516020611f3683398151915281611635610fc5565b80519091501561164d57805160209091012092915050565b600182015480156115f2579392505050565b806001600160a01b03163b60000361169557604051634c9c8ce360e01b81526001600160a01b03821660048201526024016106ed565b600080516020611f5683398151915280546001600160a01b0319166001600160a01b0392909216919091179055565b6060600080846001600160a01b0316846040516116e19190611ee6565b600060405180830381855af49150503d806000811461171c576040519150601f19603f3d011682016040523d82523d6000602084013e611721565b606091505b5091509150611731858383611897565b95945050505050565b34156105c05760405163b398979f60e01b815260040160405180910390fd5b600080516020611f168339815191526001600160a01b038416611795578181600201600082825461178a9190611f02565b909155506118079050565b6001600160a01b038416600090815260208290526040902054828110156117e85760405163391434e360e21b81526001600160a01b038616600482015260248101829052604481018490526064016106ed565b6001600160a01b03851660009081526020839052604090209083900390555b6001600160a01b038316611825576002810180548390039055611844565b6001600160a01b03831660009081526020829052604090208054830190555b826001600160a01b0316846001600160a01b03167fddf252ad1be2c89b69c2b068fc378daa952ba7f163c4a11628f55a4df523b3ef8460405161188991815260200190565b60405180910390a350505050565b6060826118ac576118a7826118f3565b61059a565b81511580156118c357506001600160a01b0384163b155b156118ec57604051639996b31560e01b81526001600160a01b03851660048201526024016106ed565b508061059a565b8051156119035780518082602001fd5b60405163d6bda27560e01b815260040160405180910390fd5b60005b8381101561193757818101518382015260200161191f565b50506000910152565b6000815180845261195881602086016020860161191c565b601f01601f19169290920160200192915050565b60208152600061059a6020830184611940565b80356001600160a01b038116811461199657600080fd5b919050565b600080604083850312156119ae57600080fd5b6119b78361197f565b946020939093013593505050565b6000806000606084860312156119da57600080fd5b6119e38461197f565b92506119f16020850161197f565b929592945050506040919091013590565b600060208284031215611a1457600080fd5b5035919050565b634e487b7160e01b600052604160045260246000fd5b60008060408385031215611a4457600080fd5b611a4d8361197f565b9150602083013567ffffffffffffffff811115611a6957600080fd5b8301601f81018513611a7a57600080fd5b803567ffffffffffffffff811115611a9457611a94611a1b565b604051601f8201601f19908116603f0116810167ffffffffffffffff81118282101715611ac357611ac3611a1b565b604052818152828201602001871015611adb57600080fd5b816020840160208301376000602083830101528093505050509250929050565b600060208284031215611b0d57600080fd5b61059a8261197f565b60ff60f81b8816815260e060208201526000611b3560e0830189611940565b8281036040840152611b478189611940565b606084018890526001600160a01b038716608085015260a0840186905283810360c08501528451808252602080870193509091019060005b81811015611b9d578351835260209384019390920191600101611b7f565b50909b9a5050505050505050505050565b600080600080600080600060e0888a031215611bc957600080fd5b611bd28861197f565b9650611be06020890161197f565b95506040880135945060608801359350608088013560ff81168114611c0457600080fd5b9699959850939692959460a0840135945060c09093013592915050565b60008060408385031215611c3457600080fd5b611c3d8361197f565b9150611c4b6020840161197f565b90509250929050565b600181811c90821680611c6857607f821691505b602082108103611c8857634e487b7160e01b600052602260045260246000fd5b50919050565b634e487b7160e01b600052601160045260246000fd5b6001815b6001841115611cdf57808504811115611cc357611cc3611c8e565b6001841615611cd157908102905b60019390931c928002611ca8565b935093915050565b600082611cf657506001610575565b81611d0357506000610575565b8160018114611d195760028114611d2357611d3f565b6001915050610575565b60ff841115611d3457611d34611c8e565b50506001821b610575565b5060208310610133831016604e8410600b8410161715611d62575081810a610575565b611d6f6000198484611ca4565b8060001904821115611d8357611d83611c8e565b029392505050565b600061059a60ff841683611ce7565b808202811582820484141761057557610575611c8e565b600060208284031215611dc357600080fd5b5051919050565b601f821115610b2b57806000526020600020601f840160051c81016020851015611df15750805b601f840160051c820191505b818110156111b55760008155600101611dfd565b815167ffffffffffffffff811115611e2b57611e2b611a1b565b611e3f81611e398454611c54565b84611dca565b6020601f821160018114611e735760008315611e5b5750848201515b600019600385901b1c1916600184901b1784556111b5565b600084815260208120601f198516915b82811015611ea35787850151825560209485019460019092019101611e83565b5084821015611ec15786840151600019600387901b60f8161c191681555b50505050600190811b01905550565b634e487b7160e01b600052602160045260246000fd5b60008251611ef881846020870161191c565b9190910192915050565b8082018082111561057557610575611c8e56fe52c63247e1f47db19d5ce0460030c497f067ca4cebf71ba98eeadabe20bace00a16a46d94261c7517cc8ff89f61c0ce93598e3c849801011dee649a6a557d100360894a13ba1a3210667c828492db98dca3e2076cc3735a920a3ca505d382bbccd5ed15c6e187e77e9aee88184c21f4f2182ab5827cb3b7e07fbedcd63f03300a264697066735822122065ea24dfa8783736abcd827b2a3d0840c978fab5f2290e71932ffee76c23ab0864736f6c634300081b0033",
  "linkReferences": {},
  "deployedLinkReferences": {}
}