{
  "_format": "hh-sol-artifact-1",
  "contractName": "NbitaiTokenSale",
  "sourceName": "contracts/NbitaiTokenSale.sol",
  "abi": [
    {
      "inputs": [
        {
          "internalType": "address",
          "name": "_token",
          "type": "address"
        },
        {
          "internalType": "uint256",
          "name": "_claimTime",
          "type": "uint256"
        }
      ],
      "stateMutability": "nonpayable",
      "type": "constructor"
    },
    {
      "inputs": [],
      "name": "EnforcedPause",
      "type": "error"
    },
    {
      "inputs": [],
      "name": "ExpectedPause",
      "type": "error"
    },
    {
      "inputs": [
        {
          "internalType": "address",
          "name": "owner",
          "type": "address"
        }
      ],
      "name": "OwnableInvalidOwner",
      "type": "error"
    },
    {
      "inputs": [
        {
          "internalType": "address",
          "name": "account",
          "type": "address"
        }
      ],
      "name": "OwnableUnauthorizedAccount",
      "type": "error"
    },
    {
      "anonymous": false,
      "inputs": [
        {
          "indexed": true,
          "internalType": "address",
          "name": "from",
          "type": "address"
        },
        {
          "indexed": false,
          "internalType": "uint256",
          "name": "supply",
          "type": "uint256"
        }
      ],
      "name": "IssueSupply",
      "type": "event"
    },
    {
      "anonymous": false,
      "inputs": [
        {
          "indexed": false,
          "internalType": "uint256",
          "name": "claimTime",
          "type": "uint256"
        }
      ],
      "name": "NewClaimTime",
      "type": "event"
    },
    {
      "anonymous": false,
      "inputs": [
        {
          "indexed": true,
          "internalType": "address",
          "name": "previousOwner",
          "type": "address"
        },
        {
          "indexed": true,
          "internalType": "address",
          "name": "newOwner",
          "type": "address"
        }
      ],
      "name": "OwnershipTransferred",
      "type": "event"
    },
    {
      "anonymous": false,
      "inputs": [
        {
          "indexed": false,
          "internalType": "address",
          "name": "account",
          "type": "address"
        }
      ],
      "name": "Paused",
      "type": "event"
    },
    {
      "anonymous": false,
      "inputs": [
        {
          "indexed": true,
          "internalType": "address",
          "name": "paymentToken",
          "type": "address"
        },
        {
          "indexed": false,
          "internalType": "uint256",
          "name": "rate",
          "type": "uint256"
        }
      ],
      "name": "Rate",
      "type": "event"
    },
    {
      "anonymous": false,
      "inputs": [
        {
          "indexed": true,
          "internalType": "address",
          "name": "buyer",
          "type": "address"
        },
        {
          "indexed": false,
          "internalType": "uint256",
          "name": "amount",
          "type": "uint256"
        },
        {
          "indexed": true,
          "internalType": "address",
          "name": "paymentToken",
          "type": "address"
        },
        {
          "indexed": false,
          "internalType": "uint256",
          "name": "rate",
          "type": "uint256"
        },
        {
          "indexed": false,
          "internalType": "uint256",
          "name": "paidAmount",
          "type": "uint256"
        },
        {
          "indexed": true,
          "internalType": "string",
          "name": "referralCode",
          "type": "string"
        }
      ],
      "name": "Sale",
      "type": "event"
    },
    {
      "anonymous": false,
      "inputs": [
        {
          "indexed": false,
          "internalType": "address",
          "name": "account",
          "type": "address"
        }
      ],
      "name": "Unpaused",
      "type": "event"
    },
    {
      "anonymous": false,
      "inputs": [
        {
          "indexed": true,
          "internalType": "address",
          "name": "paymentToken",
          "type": "address"
        },
        {
          "indexed": true,
          "internalType": "address",
          "name": "to",
          "type": "address"
        },
        {
          "indexed": false,
          "internalType": "uint256",
          "name": "supply",
          "type": "uint256"
        }
      ],
      "name": "WithdrawCollection",
      "type": "event"
    },
    {
      "anonymous": false,
      "inputs": [
        {
          "indexed": true,
          "internalType": "address",
          "name": "to",
          "type": "address"
        },
        {
          "indexed": false,
          "internalType": "uint256",
          "name": "supply",
          "type": "uint256"
        }
      ],
      "name": "WithdrawSupply",
      "type": "event"
    },
    {
      "anonymous": false,
      "inputs": [
        {
          "indexed": true,
          "internalType": "address",
          "name": "user",
          "type": "address"
        },
        {
          "indexed": false,
          "internalType": "uint256",
          "name": "amount",
          "type": "uint256"
        }
      ],
      "name": "Withdrawal",
      "type": "event"
    },
    {
      "inputs": [],
      "name": "INVERSE_BASIS_POINT",
      "outputs": [
        {
          "internalType": "uint256",
          "name": "",
          "type": "uint256"
        }
      ],
      "stateMutability": "view",
      "type": "function"
    },
    {
      "inputs": [
        {
          "internalType": "address",
          "name": "_from",
          "type": "address"
        },
        {
          "internalType": "uint256",
          "name": "_supply",
          "type": "uint256"
        }
      ],
      "name": "addSupply",
      "outputs": [],
      "stateMutability": "nonpayable",
      "type": "function"
    },
    {
      "inputs": [
        {
          "internalType": "address",
          "name": "",
          "type": "address"
        }
      ],
      "name": "balanceOf",
      "outputs": [
        {
          "internalType": "uint256",
          "name": "",
          "type": "uint256"
        }
      ],
      "stateMutability": "view",
      "type": "function"
    },
    {
      "inputs": [],
      "name": "claimTime",
      "outputs": [
        {
          "internalType": "uint256",
          "name": "",
          "type": "uint256"
        }
      ],
      "stateMutability": "view",
      "type": "function"
    },
    {
      "inputs": [
        {
          "internalType": "address",
          "name": "_paymentToken",
          "type": "address"
        }
      ],
      "name": "collection",
      "outputs": [
        {
          "internalType": "uint256",
          "name": "",
          "type": "uint256"
        }
      ],
      "stateMutability": "view",
      "type": "function"
    },
    {
      "inputs": [],
      "name": "owner",
      "outputs": [
        {
          "internalType": "address",
          "name": "",
          "type": "address"
        }
      ],
      "stateMutability": "view",
      "type": "function"
    },
    {
      "inputs": [],
      "name": "pause",
      "outputs": [],
      "stateMutability": "nonpayable",
      "type": "function"
    },
    {
      "inputs": [],
      "name": "paused",
      "outputs": [
        {
          "internalType": "bool",
          "name": "",
          "type": "bool"
        }
      ],
      "stateMutability": "view",
      "type": "function"
    },
    {
      "inputs": [
        {
          "internalType": "uint256",
          "name": "amount",
          "type": "uint256"
        },
        {
          "internalType": "address",
          "name": "paymentToken",
          "type": "address"
        },
        {
          "internalType": "string",
          "name": "referralCode",
          "type": "string"
        }
      ],
      "name": "purchase",
      "outputs": [],
      "stateMutability": "nonpayable",
      "type": "function"
    },
    {
      "inputs": [
        {
          "internalType": "address",
          "name": "",
          "type": "address"
        }
      ],
      "name": "rates",
      "outputs": [
        {
          "internalType": "uint256",
          "name": "",
          "type": "uint256"
        }
      ],
      "stateMutability": "view",
      "type": "function"
    },
    {
      "inputs": [],
      "name": "renounceOwnership",
      "outputs": [],
      "stateMutability": "nonpayable",
      "type": "function"
    },
    {
      "inputs": [
        {
          "internalType": "uint256",
          "name": "_claimTime",
          "type": "uint256"
        }
      ],
      "name": "setClaim",
      "outputs": [],
      "stateMutability": "nonpayable",
      "type": "function"
    },
    {
      "inputs": [
        {
          "internalType": "address",
          "name": "_token",
          "type": "address"
        },
        {
          "internalType": "uint256",
          "name": "_rate",
          "type": "uint256"
        }
      ],
      "name": "setRate",
      "outputs": [],
      "stateMutability": "nonpayable",
      "type": "function"
    },
    {
      "inputs": [],
      "name": "supply",
      "outputs": [
        {
          "internalType": "uint256",
          "name": "",
          "type": "uint256"
        }
      ],
      "stateMutability": "view",
      "type": "function"
    },
    {
      "inputs": [],
      "name": "token",
      "outputs": [
        {
          "internalType": "address",
          "name": "",
          "type": "address"
        }
      ],
      "stateMutability": "view",
      "type": "function"
    },
    {
      "inputs": [
        {
          "internalType": "address",
          "name": "",
          "type": "address"
        }
      ],
      "name": "totalCollection",
      "outputs": [
        {
          "internalType": "uint256",
          "name": "",
          "type": "uint256"
        }
      ],
      "stateMutability": "view",
      "type": "function"
    },
    {
      "inputs": [],
      "name": "totalSold",
      "outputs": [
        {
          "internalType": "uint256",
          "name": "",
          "type": "uint256"
        }
      ],
      "stateMutability": "view",
      "type": "function"
    },
    {
      "inputs": [
        {
          "internalType": "address",
          "name": "newOwner",
          "type": "address"
        }
      ],
      "name": "transferOwnership",
      "outputs": [],
      "stateMutability": "nonpayable",
      "type": "function"
    },
    {
      "inputs": [],
      "name": "unpause",
      "outputs": [],
      "stateMutability": "nonpayable",
      "type": "function"
    },
    {
      "inputs": [],
      "name": "withdraw",
      "outputs": [],
      "stateMutability": "nonpayable",
      "type": "function"
    },
    {
      "inputs": [
        {
          "internalType": "address",
          "name": "_paymentToken",
          "type": "address"
        },
        {
          "internalType": "address",
          "name": "_to",
          "type": "address"
        },
        {
          "internalType": "uint256",
          "name": "_amount",
          "type": "uint256"
        }
      ],
      "name": "withdrawCollection",
      "outputs": [],
      "stateMutability": "nonpayable",
      "type": "function"
    },
    {
      "inputs": [
        {
          "internalType": "address",
          "name": "_to",
          "type": "address"
        },
        {
          "internalType": "uint256",
          "name": "_supply",
          "type": "uint256"
        }
      ],
      "name": "withdrawSupply",
      "outputs": [],
      "stateMutability": "nonpayable",
      "type": "function"
    }
  ],
  "bytecode": "0x608060405234801561001057600080fd5b5060405161153238038061153283398101604081905261002f9161015b565b338061005657604051631e4fbdf760e01b8152600060048201526024015b60405180910390fd5b61005f8161010b565b506000805460ff60a01b191690554281116100e25760405162461bcd60e51b815260206004820152603360248201527f4e6269746169546f6b656e53616c653a20436c61696d2074696d652073686f7560448201527f6c6420626520696e207468652066757475726500000000000000000000000000606482015260840161004d565b600280546001600160a01b0319166001600160a01b039390931692909217909155600155610195565b600080546001600160a01b038381166001600160a01b0319831681178455604051919092169283917f8be0079c531659141344cd1fd0a4f28419497f9722a3daafe3b4186f6b6457e09190a35050565b6000806040838503121561016e57600080fd5b82516001600160a01b038116811461018557600080fd5b6020939093015192949293505050565b61138e806101a46000396000f3fe608060405234801561001057600080fd5b50600436106101425760003560e01c80639106d7ba116100b8578063cae6047f1161007c578063cae6047f14610277578063e72b602614610286578063e771e36b14610299578063e94886d2146102b9578063f2fde38b146102cc578063fc0c546a146102df57600080fd5b80639106d7ba146102155780639a86297c1461021e578063a8734f0b14610231578063aa4f601214610251578063ae2aee311461026457600080fd5b80635c975abb1161010a5780635c975abb146101905780636bdf0808146101ad57806370a08231146101c0578063715018a6146101e05780638456cb59146101e85780638da5cb5b146101f057600080fd5b8063047fc9aa1461014757806327b3bf11146101625780632bdb70971461016b5780633ccfd60b146101805780633f4ba83a14610188575b600080fd5b61014f6102f2565b6040519081526020015b60405180910390f35b61014f60015481565b61017e610179366004611133565b610364565b005b61017e6103c5565b61017e6105d0565b600054600160a01b900460ff166040519015158152602001610159565b61017e6101bb366004611173565b6105e2565b61014f6101ce366004611246565b60066020526000908152604090205481565b61017e61085d565b61017e61086f565b6000546001600160a01b03165b6040516001600160a01b039091168152602001610159565b61014f60035481565b61017e61022c366004611261565b61087f565b61014f61023f366004611246565b60056020526000908152604090205481565b61017e61025f366004611133565b6108c2565b61017e61027236600461127a565b6109fa565b61014f670de0b6b3a764000081565b61017e610294366004611133565b610bad565b61014f6102a7366004611246565b60046020526000908152604090205481565b61014f6102c7366004611246565b610d3e565b61017e6102da366004611246565b610daf565b6002546101fd906001600160a01b031681565b6002546040516370a0823160e01b81523060048201526000916001600160a01b0316906370a0823190602401602060405180830381865afa15801561033b573d6000803e3d6000fd5b505050506040513d601f19601f8201168201806040525081019061035f91906112b7565b905090565b61036c610ded565b6001600160a01b03821660008181526005602052604090819020839055517fb7f101d4f93a5ea015f5b32b9f247d105d4d5147fb45ace3745ee0b071935b57906103b99084815260200190565b60405180910390a25050565b6001544210156104375760405162461bcd60e51b815260206004820152603260248201527f4e6269746169546f6b656e53616c652377697468647261773a205749544844526044820152711055d7d393d517d0531313d5d15117d6515560721b60648201526084015b60405180910390fd5b33600090815260066020526040902054806104ae5760405162461bcd60e51b815260206004820152603160248201527f4e6269746169546f6b656e53616c652377697468647261773a20414d4f554e5460448201527017d6915493d7d393d517d0531313d5d151607a1b606482015260840161042e565b60025460405163a9059cbb60e01b8152336004820152602481018390526001600160a01b039091169063a9059cbb906044016020604051808303816000875af11580156104ff573d6000803e3d6000fd5b505050506040513d601f19601f8201168201806040525081019061052391906112d0565b6105815760405162461bcd60e51b815260206004820152602960248201527f4e6269746169546f6b656e53616c652377697468647261773a205452414e5346604482015268115497d1905253115160ba1b606482015260840161042e565b3360008181526006602052604080822091909155517f7fcf532c15f0a6db0bd6d0e038bea71d30d808c7d98cb3bf7268a95bf5081b65906105c59084815260200190565b60405180910390a250565b6105d8610ded565b6105e0610e1a565b565b6105ea610e6f565b600083116106545760405162461bcd60e51b815260206004820152603160248201527f4e6269746169546f6b656e53616c652370757263686173653a20414d4f554e5460448201527017d6915493d7d393d517d0531313d5d151607a1b606482015260840161042e565b6001600160a01b0382166000908152600560205260409020546106d55760405162461bcd60e51b815260206004820152603360248201527f4e6269746169546f6b656e53616c652370757263686173653a205041594d454e6044820152721517d513d2d15397d393d517d0531313d5d151606a1b606482015260840161042e565b6001600160a01b038216600090815260056020526040812054610702908590670de0b6b3a7640000610e9a565b90508061070d6102f2565b10156107715760405162461bcd60e51b815260206004820152602d60248201527f4e6269746169546f6b656e53616c652370757263686173653a20494e5355464660448201526c1250d251539517d05353d55395609a1b606482015260840161042e565b61077d83333087610f56565b336000908152600660205260408120805483929061079c9084906112f2565b9250508190555080600360008282546107b591906112f2565b90915550506001600160a01b038316600090815260046020526040812080548692906107e29084906112f2565b90915550506040516107f5908390611313565b604080519182900382206001600160a01b0386166000818152600560209081529084902054868652908501529183018790529133907fdf66a1fae0cee2c02ddd44fe873d5f5043d3288e6b69328d240d4064c7ba6a719060600160405180910390a450505050565b610865610ded565b6105e06000611048565b610877610ded565b6105e0611098565b610887610ded565b60018190556040518181527fb1cae60f4da2d46f32bdf2059bd91c16496d65bd447aacb9d0f56e2ec3173c7d9060200160405180910390a150565b6108ca610ded565b600254604051636eb1769f60e11b81526001600160a01b0384811660048301523060248301528392169063dd62ed3e90604401602060405180830381865afa15801561091a573d6000803e3d6000fd5b505050506040513d601f19601f8201168201806040525081019061093e91906112b7565b10156109a75760405162461bcd60e51b815260206004820152603260248201527f4e6269746169546f6b656e53616c6523616464537570706c793a204e4f545f4160448201527115551213d49256915117d513d7d4d411539160721b606482015260840161042e565b6002546109bf906001600160a01b0316833084610f56565b816001600160a01b03167f20974c8e05e53d6001b1200747eaf38151bd5a5eab04e0d7fabe74dbfbc74a9f826040516103b991815260200190565b610a02610ded565b80610a0c84610d3e565b1015610a805760405162461bcd60e51b815260206004820152603760248201527f4e6269746169546f6b656e53616c65237769746864726177436f6c6c6563746960448201527f6f6e3a20494e53554646494349454e545f414d4f554e54000000000000000000606482015260840161042e565b60405163a9059cbb60e01b81526001600160a01b0383811660048301526024820183905284169063a9059cbb906044016020604051808303816000875af1158015610acf573d6000803e3d6000fd5b505050506040513d601f19601f82011682018060405250810190610af391906112d0565b610b5b5760405162461bcd60e51b815260206004820152603360248201527f4e6269746169546f6b656e53616c65237769746864726177436f6c6c656374696044820152721bdb8e881514905394d1915497d19052531151606a1b606482015260840161042e565b816001600160a01b0316836001600160a01b03167feae73d139ccba882fc90a83590155f2d3f08dd2cd8b178245c0a735fcf951d3683604051610ba091815260200190565b60405180910390a3505050565b610bb5610ded565b80610bbe6102f2565b1015610c285760405162461bcd60e51b815260206004820152603360248201527f4e6269746169546f6b656e53616c65237769746864726177537570706c793a20604482015272494e53554646494349454e545f535550504c5960681b606482015260840161042e565b60025460405163a9059cbb60e01b81526001600160a01b038481166004830152602482018490529091169063a9059cbb906044016020604051808303816000875af1158015610c7b573d6000803e3d6000fd5b505050506040513d601f19601f82011682018060405250810190610c9f91906112d0565b610d035760405162461bcd60e51b815260206004820152602f60248201527f4e6269746169546f6b656e53616c65237769746864726177537570706c793a2060448201526e1514905394d1915497d19052531151608a1b606482015260840161042e565b816001600160a01b03167f31cfa520872a5c23d284f296f8defa2f0a4500c021a83b87c00c02fd5bb8d262826040516103b991815260200190565b6040516370a0823160e01b81523060048201526000906001600160a01b038316906370a0823190602401602060405180830381865afa158015610d85573d6000803e3d6000fd5b505050506040513d601f19601f82011682018060405250810190610da991906112b7565b92915050565b610db7610ded565b6001600160a01b038116610de157604051631e4fbdf760e01b81526000600482015260240161042e565b610dea81611048565b50565b6000546001600160a01b031633146105e05760405163118cdaa760e01b815233600482015260240161042e565b610e226110db565b6000805460ff60a01b191690557f5db9ee0a495bf2e6ff9c91a7834c1ba4fdd244a5e8aa4e537bd38aeae4b073aa335b6040516001600160a01b03909116815260200160405180910390a1565b600054600160a01b900460ff16156105e05760405163d93c066560e01b815260040160405180910390fd5b6000838302816000198587098281108382030391505080600003610ed157838281610ec757610ec7611342565b0492505050610f4f565b808411610ee857610ee86003851502601118611105565b6000848688096000868103871696879004966002600389028118808a02820302808a02820302808a02820302808a02820302808a02820302808a02909103029181900381900460010186841190950394909402919094039290920491909117919091029150505b9392505050565b8015611042576040516323b872dd60e01b81526001600160a01b0384811660048301528381166024830152604482018390528516906323b872dd906064016020604051808303816000875af1158015610fb3573d6000803e3d6000fd5b505050506040513d601f19601f82011682018060405250810190610fd791906112d0565b6110425760405162461bcd60e51b815260206004820152603660248201527f4e6269746169546f6b656e53616c65235f7472616e73666572546f6b656e733a60448201527508115490cc8c17d514905394d1915497d1905253115160521b606482015260840161042e565b50505050565b600080546001600160a01b038381166001600160a01b0319831681178455604051919092169283917f8be0079c531659141344cd1fd0a4f28419497f9722a3daafe3b4186f6b6457e09190a35050565b6110a0610e6f565b6000805460ff60a01b1916600160a01b1790557f62e78cea01bee320cd4e420270b5ea74000d11b0c9f74754ebdbfc544b05a258610e523390565b600054600160a01b900460ff166105e057604051638dfc202b60e01b815260040160405180910390fd5b634e487b71600052806020526024601cfd5b80356001600160a01b038116811461112e57600080fd5b919050565b6000806040838503121561114657600080fd5b61114f83611117565b946020939093013593505050565b634e487b7160e01b600052604160045260246000fd5b60008060006060848603121561118857600080fd5b8335925061119860208501611117565b9150604084013567ffffffffffffffff8111156111b457600080fd5b8401601f810186136111c557600080fd5b803567ffffffffffffffff8111156111df576111df61115d565b604051601f8201601f19908116603f0116810167ffffffffffffffff8111828210171561120e5761120e61115d565b60405281815282820160200188101561122657600080fd5b816020840160208301376000602083830101528093505050509250925092565b60006020828403121561125857600080fd5b610f4f82611117565b60006020828403121561127357600080fd5b5035919050565b60008060006060848603121561128f57600080fd5b61129884611117565b92506112a660208501611117565b929592945050506040919091013590565b6000602082840312156112c957600080fd5b5051919050565b6000602082840312156112e257600080fd5b81518015158114610f4f57600080fd5b80820180821115610da957634e487b7160e01b600052601160045260246000fd5b6000825160005b81811015611334576020818601810151858301520161131a565b506000920191825250919050565b634e487b7160e01b600052601260045260246000fdfea26469706673582212202fa90189231c8c8ba9f5d22c27064c5717ad78034e48a618ec570fc75be5a0ca64736f6c634300081b0033",
  "linkReferences": {},
  "deployedLinkReferences": {}
}